:020000040800F2
:100000000020002069050008B5050008B5050008B6
:1000100000000000000000000000000000000000E0
:10002000000000000000000000000000B50500080E
:100030000000000000000000B50500082D020008C7
:10004000B5050008B5050008B5050008B5050008A8
:10005000B5050008B5050008B5050008B505000898
:10006000B5050008B5050008B5050008B505000888
:10007000B5050008B5050008B5050008B505000878
:10008000B5050008B505000800000000B50500082A
:10009000B5050008B5050008B5050008B505000858
:1000A000B5050008B5050008B5050008B505000848
:1000B000B505000800000000B505000800000000BC
:1000C0005FF808F180B582B000AF78600A1CFB1CB5
:1000D0001A70FB1C1B78002B06D0084B074A51698D
:1000E0007A680A435A6106E0044B044A5269796807
:1000F000C9430A405A61BD4602B080BD00100240AB
:10010000B0B582B000AF021C3960FB1D1A70FB1D38
:100110001B787F2B32D93049FB1D1B781A1C0F230B
:100120001340083B98082C4AFB1D1B781C1C0F230E
:100130002340083B9B0806339B00D3185B68FA1DDD
:100140001278141C03222240D200FF24251C954063
:100150002A1CD2431A403B689C01FF231C40FB1D14
:100160001B781D1C03232B40DB00251C9D402B1CF2
:100170001A43831D9B00CB185A6029E0174BFA1DC8
:10018000127852B292081549F81D007840B28008E2
:10019000C03080004158F81D0078041C0320204026
:1001A000C000FF24251C8540281CC0430840396836
:1001B0008C01FF210C40F91D09780D1C03212940F9
:1001C000C900251C8D40291C0143C0329200D1502A
:1001D000BD4602B0B0BDC04600ED00E000E100E069
:1001E00080B582B000AF78607A680E4B9A4201D930
:1001F000012312E00C4B7A681202120A013A5A608B
:1002000001235B42181C0321FFF77AFF064B0022F3
:100210009A60054B07221A600023181CBD4602B0E5
:1002200080BDC046FFFFFF0010E000E080B500AFDA
:10023000034B1B685A1C024B1A60BD4680BDC0466A
:100240001400002080B584B000AF7860064B1B68B6
:10025000FB60C046044B1A68FB68D21A7B689A425E
:10026000F8D3BD4604B080BD1400002080B584B032
:1002700000AF0A1CFB1D011C1970BB1D1A70FB1D71
:100280001B78012B17D002DC002B05D040E0022B9D
:1002900020D0032B2DD03BE09023DB05181C02213E
:1002A000012200F0DBFA9023DB05181C012100225B
:1002B00000F0D4FA2CE09023DB05181C0821012261
:1002C00000F0CCFA9023DB05181C0421002200F07A
:1002D000C5FA1DE09023DB05181C2021012200F047
:1002E000BDFA9023DB05181C1021002200F0B6FA9D
:1002F0000EE09023DB05181C8021012200F0AEFAED
:100300009023DB05181C4021002200F0A7FAC0460C
:10031000BB1D1B78012B0CD0022B13D0002B1AD144
:100320003B1C0F3300221A703B1C0E3300221A7044
:1003300011E03B1C0F3301221A703B1C0E330022CC
:100340001A7008E03B1C0F3301221A703B1C0E335D
:1003500001221A70C046FB1D1B78012B1DD002DC48
:10036000002B05D058E0022B2CD0032B3FD053E0BC
:100370009023DA053B1C0F331B78101C02211A1C3A
:1003800000F06CFA9023DA053B1C0E331B78101C2E
:1003900001211A1C00F062FA3EE09023DA053B1CB2
:1003A0000F331B78101C08211A1C00F057FA9023F9
:1003B000DA053B1C0E331B78101C04211A1C00F0BC
:1003C0004DFA29E09023DA053B1C0F331B78101CF3
:1003D00020211A1C00F042FA9023DA053B1C0E3350
:1003E0001B78101C10211A1C00F038FA14E090231E
:1003F000DA053B1C0F331B78101C80211A1C00F0FF
:100400002DFA9023DA053B1C0E331B78101C40217B
:100410001A1C00F023FAC046BD4604B080BDC04699
:1004200080B58AB000AF80239B02181C0121FFF722
:1004300049FE474BFF221A60454B01221A71444B7B
:1004400000229A71424B0022DA71414B00225A710C
:100450009023DA053E4B101C191C00F063F93A1C7E
:1004600018323C4B111C1A1C0823081C111C1A1CA6
:1004700000F05CFA3A1C1032374B111C1A1C08238E
:10048000081C111C1A1C00F051FA3A1C0832334B9C
:10049000111C1A1C0823081C111C1A1C00F046FA17
:1004A0003A1C2F4B111C1A1C0823081C111C1A1C67
:1004B00000F03CFA2B4B1B68181CFA23990000F043
:1004C000E5F9031C181CFFF78BFE01233B623B1C64
:1004D000273300221A703B1C27331B783A1C183232
:1004E000D35C0020191CFFF7C1FE3B1C27331B788F
:1004F0003A1C0832D35C0120191CFFF7B7FE3B1CE5
:1005000027331B783A1C1032D35C0220191CFFF7EA
:10051000ADFE3B1C27331B783A1CD35C0320191C0F
:10052000FFF7A4FE3B1C27331A783B1C273301320C
:100530001A703B1C27331B78082B03D13B1C273335
:1005400000221A703B6A181CFFF77CFEC3E7C04606
:1005500018000020B0090008B8090008C009000808
:10056000C8090008000000200C488546002103E06F
:100570000B4B5B58435004310A480B4B42189A42CC
:10058000F6D30A4A02E0002313600432084B9A4271
:10059000F9D300F011F8FFF743FFFEE70020002039
:1005A000D0090008000000201400002014000020E2
:1005B00020000020FEE7000080B500AF1B4B1B4A67
:1005C000126801210A431A60184B184A5168184AE8
:1005D0000A405A60154B154A1168164A0A401A60BB
:1005E000124B124A1168144A0A401A600F4B0F4A04
:1005F0005168124A0A405A600C4B0C4AD26A0F21C9
:100600008A43DA62094B094A116B0D4A0A401A63A0
:10061000064B064A526B01218A435A63034B002260
:100620009A6000F00FF8BD4680BDC0460010024041
:100630000CB8FFF8FFFFF6FEFFFFFBFFFFFFC0FF58
:10064000ACFEFFFF80B582B000AF00237B600023CB
:100650003B60314B304A1268802149020A431A60DC
:100660002D4B1A6880239B0213403B607B6801334B
:100670007B603B68002B04D17A68A023DB019A429F
:10068000EED1254B1A6880239B02134002D0012330
:100690003B6001E000233B603B68012B38D11F4BDE
:1006A00011221A601C4B1C4A52685A601A4B1A4A93
:1006B00052685A60184B184A5168194A0A405A60E1
:1006C000154B154A5268882149030A435A60124B58
:1006D000114A1268802149040A431A60C0460E4B31
:1006E0001A6880239B041340F9D00B4B0A4A5268C6
:1006F00003218A435A60084B074A526802210A4381
:100700005A60C046044B5A680C231340082BF9D199
:10071000BD4602B080BDC04600100240002002402D
:10072000FFFFC0FF80B586B000AF7860396000235E
:100730007B6100233B610023FB6000237B6185E03C
:100740007B690122101C9840031C3B613B681B68BD
:100750003A691340FB60FA683B699A4273D13B687F
:100760001B79012B03D03B681B79022B38D17B68A6
:100770009B687A6952000321081C9040021CD243F6
:100780001A407B689A607B689A683B685B79191CA1
:100790007B695B00081C9840031C1A437B689A60C5
:1007A0007B689B889BB27A6992B20121081C9040B9
:1007B000021C92B2D24392B213409AB27B689A80E2
:1007C0007B689B889AB23B689B79191C7B699BB2BA
:1007D000081C9840031C9BB213439AB27B689A8012
:1007E0007B681B687A6952000321081C9040021C38
:1007F000D2431A407B681A607B681A683B681B7991
:10080000191C7B695B00081C9840031C1A437B6819
:100810001A607B68DB687A6992B252000321081C77
:100820009040021CD2431A407B68DA607B68DA6829
:100830003B68DB79191C7B695B00081C9840031C32
:100840001A437B68DA607B6901337B617B690F2B1C
:1008500000D875E7BD4606B080BDC04680B582B001
:1008600000AF7860BB1C19807B1C1A707B1C1B7846
:10087000002B04D0BB1C1A887B689A6103E07B685C
:10088000BA1C12881A85BD4602B080BD002934D03A
:100890000123002210B488422CD301242407A14252
:1008A00004D2814202D209011B01F8E7E400A1420F
:1008B00004D2814202D249005B00F8E7884201D3AA
:1008C000401A1A434C08A04202D3001B5C08224382
:1008D0008C08A04202D3001B9C082243CC08A042F3
:1008E00002D3001BDC082243002803D01B0901D0DF
:1008F0000909E3E7101C10BC7047002801D0002054
:10090000C04307B4024802A14018029003BDC0468C
:10091000190000000029F0D003B5FFF7B9FF0EBCA5
:100920004243891A1847C0467047C046F0B50F2A9F
:1009300035D9031C0B439C0735D1161C103E3609D4
:100940003501451910350C1C031C27681F606768AA
:100950005F60A7689F60E7681034DF601033AB42C8
:10096000F3D1731C1B01C518C9180F231340032BA7
:100970001BD91C1FA4080134A4000023CE58EE503C
:100980000433A342FAD1ED18C91803231A4005D045
:100990000023CC5CEC5401339342FAD1F0BD051C2A
:1009A000002AF5D1FAE7051CF2E71A1CF8E7C04661
:1009B000000000000202020002020200000000002B
:1009C000000002020200000002000000000002021B
:1009D000006CDC02000000000000000001020304C3
:0409E00006070809F5
:0400000508000000EF
:00000001FF
